{
  "_format": "hh-sol-artifact-1",
  "contractName": "MobilePhones",
  "sourceName": "contracts/MyContract.sol",
  "abi": [
    {
      "inputs": [],
      "stateMutability": "nonpayable",
      "type": "constructor"
    },
    {
      "anonymous": false,
      "inputs": [
        {
          "indexed": false,
          "internalType": "string",
          "name": "_model_Number",
          "type": "string"
        },
        {
          "indexed": false,
          "internalType": "string",
          "name": "_imei1",
          "type": "string"
        },
        {
          "indexed": false,
          "internalType": "string",
          "name": "_imei2",
          "type": "string"
        }
      ],
      "name": "ADDPHONE",
      "type": "event"
    },
    {
      "anonymous": false,
      "inputs": [
        {
          "indexed": false,
          "internalType": "address",
          "name": "from",
          "type": "address"
        },
        {
          "indexed": false,
          "internalType": "address",
          "name": "to",
          "type": "address"
        },
        {
          "indexed": false,
          "internalType": "string",
          "name": "_imei",
          "type": "string"
        }
      ],
      "name": "TRANSFERPHONE",
      "type": "event"
    },
    {
      "inputs": [
        {
          "internalType": "string",
          "name": "_model_Number",
          "type": "string"
        },
        {
          "internalType": "string",
          "name": "_imei1",
          "type": "string"
        },
        {
          "internalType": "string",
          "name": "_imei2",
          "type": "string"
        }
      ],
      "name": "addPhone",
      "outputs": [
        {
          "internalType": "bool",
          "name": "",
          "type": "bool"
        }
      ],
      "stateMutability": "nonpayable",
      "type": "function"
    },
    {
      "inputs": [
        {
          "internalType": "string",
          "name": "_imei",
          "type": "string"
        }
      ],
      "name": "getPhoneDetails",
      "outputs": [
        {
          "internalType": "string",
          "name": "",
          "type": "string"
        },
        {
          "internalType": "string",
          "name": "",
          "type": "string"
        },
        {
          "internalType": "string",
          "name": "",
          "type": "string"
        },
        {
          "internalType": "address",
          "name": "",
          "type": "address"
        },
        {
          "internalType": "enum MobilePhones.Status",
          "name": "",
          "type": "uint8"
        }
      ],
      "stateMutability": "view",
      "type": "function"
    },
    {
      "inputs": [
        {
          "internalType": "string",
          "name": "_imei",
          "type": "string"
        },
        {
          "internalType": "address",
          "name": "to",
          "type": "address"
        }
      ],
      "name": "transfer",
      "outputs": [
        {
          "internalType": "bool",
          "name": "",
          "type": "bool"
        }
      ],
      "stateMutability": "nonpayable",
      "type": "function"
    }
  ],
  "bytecode": "0x608060405234801561001057600080fd5b5033600160006101000a81548173ffffffffffffffffffffffffffffffffffffffff021916908373ffffffffffffffffffffffffffffffffffffffff160217905550611393806100616000396000f3fe608060405234801561001057600080fd5b50600436106100415760003560e01c8063bdc750a814610046578063dcf2fef71461007a578063fbf58b3e146100aa575b600080fd5b610060600480360381019061005b9190610a4f565b6100da565b604051610071959493929190610bcf565b60405180910390f35b610094600480360381019061008f9190610c37565b61036d565b6040516100a19190610cf9565b60405180910390f35b6100c460048036038101906100bf9190610d40565b610605565b6040516100d19190610cf9565b60405180910390f35b60608060606000806000866040516100f29190610dd8565b90815260200160405180910390206000016000876040516101139190610dd8565b90815260200160405180910390206002016000886040516101349190610dd8565b90815260200160405180910390206002016000896040516101559190610dd8565b908152602001604051809103902060030160009054906101000a900473ffffffffffffffffffffffffffffffffffffffff1660008a6040516101979190610dd8565b908152602001604051809103902060030160149054906101000a900460ff168480546101c290610e1e565b80601f01602080910402602001604051908101604052809291908181526020018280546101ee90610e1e565b801561023b5780601f106102105761010080835404028352916020019161023b565b820191906000526020600020905b81548152906001019060200180831161021e57829003601f168201915b5050505050945083805461024e90610e1e565b80601f016020809104026020016040519081016040528092919081815260200182805461027a90610e1e565b80156102c75780601f1061029c576101008083540402835291602001916102c7565b820191906000526020600020905b8154815290600101906020018083116102aa57829003601f168201915b505050505093508280546102da90610e1e565b80601f016020809104026020016040519081016040528092919081815260200182805461030690610e1e565b80156103535780601f1061032857610100808354040283529160200191610353565b820191906000526020600020905b81548152906001019060200180831161033657829003601f168201915b505050505092509450945094509450945091939590929450565b6000600160009054906101000a900473ffffffffffffffffffffffffffffffffffffffff1673ffffffffffffffffffffffffffffffffffffffff163373ffffffffffffffffffffffffffffffffffffffff16146103ff576040517f08c379a00000000000000000000000000000000000000000000000000000000081526004016103f690610e9b565b60405180910390fd5b6000600281111561041357610412610b58565b5b6000846040516104239190610dd8565b908152602001604051809103902060030160149054906101000a900460ff16600281111561045457610453610b58565b5b14610494576040517f08c379a000000000000000000000000000000000000000000000000000000000815260040161048b90610f2d565b60405180910390fd5b6040518060a00160405280858152602001848152602001838152602001600073ffffffffffffffffffffffffffffffffffffffff168152602001600160028111156104e2576104e1610b58565b5b8152506000846040516104f59190610dd8565b908152602001604051809103902060008201518160000190816105189190611103565b50602082015181600101908161052e9190611103565b5060408201518160020190816105449190611103565b5060608201518160030160006101000a81548173ffffffffffffffffffffffffffffffffffffffff021916908373ffffffffffffffffffffffffffffffffffffffff16021790555060808201518160030160146101000a81548160ff021916908360028111156105b7576105b6610b58565b5b02179055509050507f2d4ab2c6d3535a004834107f3872b41cb049568ebf65dec220c0400b349d44c08484846040516105f2939291906111d5565b60405180910390a1600190509392505050565b6000826000600281111561061c5761061b610b58565b5b60008260405161062c9190610dd8565b908152602001604051809103902060030160149054906101000a900460ff16600281111561065d5761065c610b58565b5b1415801561072f57503373ffffffffffffffffffffffffffffffffffffffff1660008260405161068d9190610dd8565b908152602001604051809103902060030160009054906101000a900473ffffffffffffffffffffffffffffffffffffffff1673ffffffffffffffffffffffffffffffffffffffff16148061072e57503373ffffffffffffffffffffffffffffffffffffffff16600160009054906101000a900473ffffffffffffffffffffffffffffffffffffffff1673ffffffffffffffffffffffffffffffffffffffff16145b5b61076e576040517f08c379a00000000000000000000000000000000000000000000000000000000081526004016107659061126d565b60405180910390fd5b836000600281111561078357610782610b58565b5b6000826040516107939190610dd8565b908152602001604051809103902060030160149054906101000a900460ff1660028111156107c4576107c3610b58565b5b03610804576040517f08c379a00000000000000000000000000000000000000000000000000000000081526004016107fb906112ff565b60405180910390fd5b836000866040516108159190610dd8565b908152602001604051809103902060030160006101000a81548173ffffffffffffffffffffffffffffffffffffffff021916908373ffffffffffffffffffffffffffffffffffffffff16021790555060026000866040516108769190610dd8565b908152602001604051809103902060030160146101000a81548160ff021916908360028111156108a9576108a8610b58565b5b02179055507f62ea8e2c0a73fd73df021216d04f2bfc56a79da312df46a77136d688862ded0e3385876040516108e19392919061131f565b60405180910390a160019250505092915050565b6000604051905090565b600080fd5b600080fd5b600080fd5b600080fd5b6000601f19601f8301169050919050565b7f4e487b7100000000000000000000000000000000000000000000000000000000600052604160045260246000fd5b61095c82610913565b810181811067ffffffffffffffff8211171561097b5761097a610924565b5b80604052505050565b600061098e6108f5565b905061099a8282610953565b919050565b600067ffffffffffffffff8211156109ba576109b9610924565b5b6109c382610913565b9050602081019050919050565b82818337600083830152505050565b60006109f26109ed8461099f565b610984565b905082815260208101848484011115610a0e57610a0d61090e565b5b610a198482856109d0565b509392505050565b600082601f830112610a3657610a35610909565b5b8135610a468482602086016109df565b91505092915050565b600060208284031215610a6557610a646108ff565b5b600082013567ffffffffffffffff811115610a8357610a82610904565b5b610a8f84828501610a21565b91505092915050565b600081519050919050565b600082825260208201905092915050565b60005b83811015610ad2578082015181840152602081019050610ab7565b60008484015250505050565b6000610ae982610a98565b610af38185610aa3565b9350610b03818560208601610ab4565b610b0c81610913565b840191505092915050565b600073ffffffffffffffffffffffffffffffffffffffff82169050919050565b6000610b4282610b17565b9050919050565b610b5281610b37565b82525050565b7f4e487b7100000000000000000000000000000000000000000000000000000000600052602160045260246000fd5b60038110610b9857610b97610b58565b5b50565b6000819050610ba982610b87565b919050565b6000610bb982610b9b565b9050919050565b610bc981610bae565b82525050565b600060a0820190508181036000830152610be98188610ade565b90508181036020830152610bfd8187610ade565b90508181036040830152610c118186610ade565b9050610c206060830185610b49565b610c2d6080830184610bc0565b9695505050505050565b600080600060608486031215610c5057610c4f6108ff565b5b600084013567ffffffffffffffff811115610c6e57610c6d610904565b5b610c7a86828701610a21565b935050602084013567ffffffffffffffff811115610c9b57610c9a610904565b5b610ca786828701610a21565b925050604084013567ffffffffffffffff811115610cc857610cc7610904565b5b610cd486828701610a21565b9150509250925092565b60008115159050919050565b610cf381610cde565b82525050565b6000602082019050610d0e6000830184610cea565b92915050565b610d1d81610b37565b8114610d2857600080fd5b50565b600081359050610d3a81610d14565b92915050565b60008060408385031215610d5757610d566108ff565b5b600083013567ffffffffffffffff811115610d7557610d74610904565b5b610d8185828601610a21565b9250506020610d9285828601610d2b565b9150509250929050565b600081905092915050565b6000610db282610a98565b610dbc8185610d9c565b9350610dcc818560208601610ab4565b80840191505092915050565b6000610de48284610da7565b915081905092915050565b7f4e487b7100000000000000000000000000000000000000000000000000000000600052602260045260246000fd5b60006002820490506001821680610e3657607f821691505b602082108103610e4957610e48610def565b5b50919050565b7f596f7520617265206e6f7420616c6c6f77656420746f206164642070686f6e65600082015250565b6000610e85602083610aa3565b9150610e9082610e4f565b602082019050919050565b60006020820190508181036000830152610eb481610e78565b9050919050565b7f4d6f62696c652050686f6e65206174207468697320696d656920616c7265616460008201527f7920657869737473000000000000000000000000000000000000000000000000602082015250565b6000610f17602883610aa3565b9150610f2282610ebb565b604082019050919050565b60006020820190508181036000830152610f4681610f0a565b9050919050565b60008190508160005260206000209050919050565b60006020601f8301049050919050565b600082821b905092915050565b600060088302610faf7fffffffffffffffffffffffffffffffffffffffffffffffffffffffffffffffff82610f72565b610fb98683610f72565b95508019841693508086168417925050509392505050565b6000819050919050565b6000819050919050565b6000611000610ffb610ff684610fd1565b610fdb565b610fd1565b9050919050565b6000819050919050565b61101a83610fe5565b61102e61102682611007565b848454610f7f565b825550505050565b600090565b611043611036565b61104e818484611011565b505050565b5b818110156110725761106760008261103b565b600181019050611054565b5050565b601f8211156110b75761108881610f4d565b61109184610f62565b810160208510156110a0578190505b6110b46110ac85610f62565b830182611053565b50505b505050565b600082821c905092915050565b60006110da600019846008026110bc565b1980831691505092915050565b60006110f383836110c9565b9150826002028217905092915050565b61110c82610a98565b67ffffffffffffffff81111561112557611124610924565b5b61112f8254610e1e565b61113a828285611076565b600060209050601f83116001811461116d576000841561115b578287015190505b61116585826110e7565b8655506111cd565b601f19841661117b86610f4d565b60005b828110156111a35784890151825560018201915060208501945060208101905061117e565b868310156111c057848901516111bc601f8916826110c9565b8355505b6001600288020188555050505b505050505050565b600060608201905081810360008301526111ef8186610ade565b905081810360208301526112038185610ade565b905081810360408301526112178184610ade565b9050949350505050565b7f4f6e6c79207468652070686f6e65206f776e65722063616e20646f2074686973600082015250565b6000611257602083610aa3565b915061126282611221565b602082019050919050565b600060208201905081810360008301526112868161124a565b9050919050565b7f4e6f2070686f6e6520657869737473206174207468697320494d4549204e756d60008201527f6265720000000000000000000000000000000000000000000000000000000000602082015250565b60006112e9602383610aa3565b91506112f48261128d565b604082019050919050565b60006020820190508181036000830152611318816112dc565b9050919050565b60006060820190506113346000830186610b49565b6113416020830185610b49565b81810360408301526113538184610ade565b905094935050505056fea264697066735822122009e111c6a6969d47d4c563247285b57cdf4d4e9f64a7bb648986eda785c1da0164736f6c63430008130033",
  "linkReferences": {},
  "deployedLinkReferences": {}
}