{
  "_format": "hh-sol-artifact-1",
  "contractName": "MobilePhones",
  "sourceName": "contracts/MyContract.sol",
  "abi": [
    {
      "inputs": [],
      "stateMutability": "nonpayable",
      "type": "constructor"
    },
    {
      "anonymous": false,
      "inputs": [
        {
          "indexed": false,
          "internalType": "string",
          "name": "_model_Number",
          "type": "string"
        },
        {
          "indexed": false,
          "internalType": "string",
          "name": "_imei1",
          "type": "string"
        },
        {
          "indexed": false,
          "internalType": "string",
          "name": "_imei2",
          "type": "string"
        },
        {
          "indexed": false,
          "internalType": "address",
          "name": "owner",
          "type": "address"
        }
      ],
      "name": "ADDPHONE",
      "type": "event"
    },
    {
      "anonymous": false,
      "inputs": [
        {
          "indexed": false,
          "internalType": "address",
          "name": "from",
          "type": "address"
        },
        {
          "indexed": false,
          "internalType": "address",
          "name": "to",
          "type": "address"
        },
        {
          "indexed": false,
          "internalType": "string",
          "name": "_imei",
          "type": "string"
        }
      ],
      "name": "TRANSFERPHONE",
      "type": "event"
    },
    {
      "inputs": [
        {
          "internalType": "string",
          "name": "_model_Number",
          "type": "string"
        },
        {
          "internalType": "string",
          "name": "_imei1",
          "type": "string"
        },
        {
          "internalType": "string",
          "name": "_imei2",
          "type": "string"
        }
      ],
      "name": "addPhone",
      "outputs": [
        {
          "internalType": "bool",
          "name": "",
          "type": "bool"
        }
      ],
      "stateMutability": "nonpayable",
      "type": "function"
    },
    {
      "inputs": [
        {
          "internalType": "string",
          "name": "_imei",
          "type": "string"
        }
      ],
      "name": "getPhoneDetails",
      "outputs": [
        {
          "internalType": "string",
          "name": "",
          "type": "string"
        },
        {
          "internalType": "string",
          "name": "",
          "type": "string"
        },
        {
          "internalType": "string",
          "name": "",
          "type": "string"
        },
        {
          "internalType": "address",
          "name": "",
          "type": "address"
        },
        {
          "internalType": "enum MobilePhones.Status",
          "name": "",
          "type": "uint8"
        }
      ],
      "stateMutability": "view",
      "type": "function"
    },
    {
      "inputs": [
        {
          "internalType": "string",
          "name": "_imei",
          "type": "string"
        },
        {
          "internalType": "address",
          "name": "to",
          "type": "address"
        }
      ],
      "name": "transfer",
      "outputs": [
        {
          "internalType": "bool",
          "name": "",
          "type": "bool"
        }
      ],
      "stateMutability": "nonpayable",
      "type": "function"
    }
  ],
  "bytecode": "0x608060405234801561001057600080fd5b5033600160006101000a81548173ffffffffffffffffffffffffffffffffffffffff021916908373ffffffffffffffffffffffffffffffffffffffff1602179055506113a2806100616000396000f3fe608060405234801561001057600080fd5b50600436106100415760003560e01c8063bdc750a814610046578063dcf2fef71461007a578063fbf58b3e146100aa575b600080fd5b610060600480360381019061005b9190610a50565b6100da565b604051610071959493929190610bd0565b60405180910390f35b610094600480360381019061008f9190610c38565b61036d565b6040516100a19190610cfa565b60405180910390f35b6100c460048036038101906100bf9190610d41565b610606565b6040516100d19190610cfa565b60405180910390f35b60608060606000806000866040516100f29190610dd9565b90815260200160405180910390206000016000876040516101139190610dd9565b90815260200160405180910390206002016000886040516101349190610dd9565b90815260200160405180910390206002016000896040516101559190610dd9565b908152602001604051809103902060030160009054906101000a900473ffffffffffffffffffffffffffffffffffffffff1660008a6040516101979190610dd9565b908152602001604051809103902060030160149054906101000a900460ff168480546101c290610e1f565b80601f01602080910402602001604051908101604052809291908181526020018280546101ee90610e1f565b801561023b5780601f106102105761010080835404028352916020019161023b565b820191906000526020600020905b81548152906001019060200180831161021e57829003601f168201915b5050505050945083805461024e90610e1f565b80601f016020809104026020016040519081016040528092919081815260200182805461027a90610e1f565b80156102c75780601f1061029c576101008083540402835291602001916102c7565b820191906000526020600020905b8154815290600101906020018083116102aa57829003601f168201915b505050505093508280546102da90610e1f565b80601f016020809104026020016040519081016040528092919081815260200182805461030690610e1f565b80156103535780601f1061032857610100808354040283529160200191610353565b820191906000526020600020905b81548152906001019060200180831161033657829003601f168201915b505050505092509450945094509450945091939590929450565b6000600160009054906101000a900473ffffffffffffffffffffffffffffffffffffffff1673ffffffffffffffffffffffffffffffffffffffff163373ffffffffffffffffffffffffffffffffffffffff16146103ff576040517f08c379a00000000000000000000000000000000000000000000000000000000081526004016103f690610e9c565b60405180910390fd5b6000600281111561041357610412610b59565b5b6000846040516104239190610dd9565b908152602001604051809103902060030160149054906101000a900460ff16600281111561045457610453610b59565b5b14610494576040517f08c379a000000000000000000000000000000000000000000000000000000000815260040161048b90610f2e565b60405180910390fd5b6040518060a001604052808581526020018481526020018381526020013373ffffffffffffffffffffffffffffffffffffffff168152602001600160028111156104e1576104e0610b59565b5b8152506000846040516104f49190610dd9565b908152602001604051809103902060008201518160000190816105179190611104565b50602082015181600101908161052d9190611104565b5060408201518160020190816105439190611104565b5060608201518160030160006101000a81548173ffffffffffffffffffffffffffffffffffffffff021916908373ffffffffffffffffffffffffffffffffffffffff16021790555060808201518160030160146101000a81548160ff021916908360028111156105b6576105b5610b59565b5b02179055509050507ffc14199f386f83151e13882381da495e2bb743a30123d4ca8ac0b3abf6d5dee7848484336040516105f394939291906111d6565b60405180910390a1600190509392505050565b6000826000600281111561061d5761061c610b59565b5b60008260405161062d9190610dd9565b908152602001604051809103902060030160149054906101000a900460ff16600281111561065e5761065d610b59565b5b1415801561073057503373ffffffffffffffffffffffffffffffffffffffff1660008260405161068e9190610dd9565b908152602001604051809103902060030160009054906101000a900473ffffffffffffffffffffffffffffffffffffffff1673ffffffffffffffffffffffffffffffffffffffff16148061072f57503373ffffffffffffffffffffffffffffffffffffffff16600160009054906101000a900473ffffffffffffffffffffffffffffffffffffffff1673ffffffffffffffffffffffffffffffffffffffff16145b5b61076f576040517f08c379a00000000000000000000000000000000000000000000000000000000081526004016107669061127c565b60405180910390fd5b836000600281111561078457610783610b59565b5b6000826040516107949190610dd9565b908152602001604051809103902060030160149054906101000a900460ff1660028111156107c5576107c4610b59565b5b03610805576040517f08c379a00000000000000000000000000000000000000000000000000000000081526004016107fc9061130e565b60405180910390fd5b836000866040516108169190610dd9565b908152602001604051809103902060030160006101000a81548173ffffffffffffffffffffffffffffffffffffffff021916908373ffffffffffffffffffffffffffffffffffffffff16021790555060026000866040516108779190610dd9565b908152602001604051809103902060030160146101000a81548160ff021916908360028111156108aa576108a9610b59565b5b02179055507f62ea8e2c0a73fd73df021216d04f2bfc56a79da312df46a77136d688862ded0e3385876040516108e29392919061132e565b60405180910390a160019250505092915050565b6000604051905090565b600080fd5b600080fd5b600080fd5b600080fd5b6000601f19601f8301169050919050565b7f4e487b7100000000000000000000000000000000000000000000000000000000600052604160045260246000fd5b61095d82610914565b810181811067ffffffffffffffff8211171561097c5761097b610925565b5b80604052505050565b600061098f6108f6565b905061099b8282610954565b919050565b600067ffffffffffffffff8211156109bb576109ba610925565b5b6109c482610914565b9050602081019050919050565b82818337600083830152505050565b60006109f36109ee846109a0565b610985565b905082815260208101848484011115610a0f57610a0e61090f565b5b610a1a8482856109d1565b509392505050565b600082601f830112610a3757610a3661090a565b5b8135610a478482602086016109e0565b91505092915050565b600060208284031215610a6657610a65610900565b5b600082013567ffffffffffffffff811115610a8457610a83610905565b5b610a9084828501610a22565b91505092915050565b600081519050919050565b600082825260208201905092915050565b60005b83811015610ad3578082015181840152602081019050610ab8565b60008484015250505050565b6000610aea82610a99565b610af48185610aa4565b9350610b04818560208601610ab5565b610b0d81610914565b840191505092915050565b600073ffffffffffffffffffffffffffffffffffffffff82169050919050565b6000610b4382610b18565b9050919050565b610b5381610b38565b82525050565b7f4e487b7100000000000000000000000000000000000000000000000000000000600052602160045260246000fd5b60038110610b9957610b98610b59565b5b50565b6000819050610baa82610b88565b919050565b6000610bba82610b9c565b9050919050565b610bca81610baf565b82525050565b600060a0820190508181036000830152610bea8188610adf565b90508181036020830152610bfe8187610adf565b90508181036040830152610c128186610adf565b9050610c216060830185610b4a565b610c2e6080830184610bc1565b9695505050505050565b600080600060608486031215610c5157610c50610900565b5b600084013567ffffffffffffffff811115610c6f57610c6e610905565b5b610c7b86828701610a22565b935050602084013567ffffffffffffffff811115610c9c57610c9b610905565b5b610ca886828701610a22565b925050604084013567ffffffffffffffff811115610cc957610cc8610905565b5b610cd586828701610a22565b9150509250925092565b60008115159050919050565b610cf481610cdf565b82525050565b6000602082019050610d0f6000830184610ceb565b92915050565b610d1e81610b38565b8114610d2957600080fd5b50565b600081359050610d3b81610d15565b92915050565b60008060408385031215610d5857610d57610900565b5b600083013567ffffffffffffffff811115610d7657610d75610905565b5b610d8285828601610a22565b9250506020610d9385828601610d2c565b9150509250929050565b600081905092915050565b6000610db382610a99565b610dbd8185610d9d565b9350610dcd818560208601610ab5565b80840191505092915050565b6000610de58284610da8565b915081905092915050565b7f4e487b7100000000000000000000000000000000000000000000000000000000600052602260045260246000fd5b60006002820490506001821680610e3757607f821691505b602082108103610e4a57610e49610df0565b5b50919050565b7f596f7520617265206e6f7420616c6c6f77656420746f206164642070686f6e65600082015250565b6000610e86602083610aa4565b9150610e9182610e50565b602082019050919050565b60006020820190508181036000830152610eb581610e79565b9050919050565b7f4d6f62696c652050686f6e65206174207468697320696d656920616c7265616460008201527f7920657869737473000000000000000000000000000000000000000000000000602082015250565b6000610f18602883610aa4565b9150610f2382610ebc565b604082019050919050565b60006020820190508181036000830152610f4781610f0b565b9050919050565b60008190508160005260206000209050919050565b60006020601f8301049050919050565b600082821b905092915050565b600060088302610fb07fffffffffffffffffffffffffffffffffffffffffffffffffffffffffffffffff82610f73565b610fba8683610f73565b95508019841693508086168417925050509392505050565b6000819050919050565b6000819050919050565b6000611001610ffc610ff784610fd2565b610fdc565b610fd2565b9050919050565b6000819050919050565b61101b83610fe6565b61102f61102782611008565b848454610f80565b825550505050565b600090565b611044611037565b61104f818484611012565b505050565b5b818110156110735761106860008261103c565b600181019050611055565b5050565b601f8211156110b85761108981610f4e565b61109284610f63565b810160208510156110a1578190505b6110b56110ad85610f63565b830182611054565b50505b505050565b600082821c905092915050565b60006110db600019846008026110bd565b1980831691505092915050565b60006110f483836110ca565b9150826002028217905092915050565b61110d82610a99565b67ffffffffffffffff81111561112657611125610925565b5b6111308254610e1f565b61113b828285611077565b600060209050601f83116001811461116e576000841561115c578287015190505b61116685826110e8565b8655506111ce565b601f19841661117c86610f4e565b60005b828110156111a45784890151825560018201915060208501945060208101905061117f565b868310156111c157848901516111bd601f8916826110ca565b8355505b6001600288020188555050505b505050505050565b600060808201905081810360008301526111f08187610adf565b905081810360208301526112048186610adf565b905081810360408301526112188185610adf565b90506112276060830184610b4a565b95945050505050565b7f4f6e6c79207468652070686f6e65206f776e65722063616e20646f2074686973600082015250565b6000611266602083610aa4565b915061127182611230565b602082019050919050565b6000602082019050818103600083015261129581611259565b9050919050565b7f4e6f2070686f6e6520657869737473206174207468697320494d4549204e756d60008201527f6265720000000000000000000000000000000000000000000000000000000000602082015250565b60006112f8602383610aa4565b91506113038261129c565b604082019050919050565b60006020820190508181036000830152611327816112eb565b9050919050565b60006060820190506113436000830186610b4a565b6113506020830185610b4a565b81810360408301526113628184610adf565b905094935050505056fea26469706673582212209a3ba5ae40b2cafd0ca055d5d8ab36c97aad1244eb9105af1e4aa01065e1c40764736f6c63430008130033",
  "linkReferences": {},
  "deployedLinkReferences": {}
}