{
  "_format": "hh-sol-artifact-1",
  "contractName": "MobilePhones",
  "sourceName": "contracts/MyContract.sol",
  "abi": [
    {
      "inputs": [],
      "stateMutability": "nonpayable",
      "type": "constructor"
    },
    {
      "anonymous": false,
      "inputs": [
        {
          "indexed": false,
          "internalType": "string",
          "name": "_model_Number",
          "type": "string"
        },
        {
          "indexed": false,
          "internalType": "uint48",
          "name": "_imei1",
          "type": "uint48"
        },
        {
          "indexed": false,
          "internalType": "uint48",
          "name": "_imei2",
          "type": "uint48"
        },
        {
          "indexed": false,
          "internalType": "address",
          "name": "owner",
          "type": "address"
        }
      ],
      "name": "ADDPHONE",
      "type": "event"
    },
    {
      "anonymous": false,
      "inputs": [
        {
          "indexed": false,
          "internalType": "address",
          "name": "from",
          "type": "address"
        },
        {
          "indexed": false,
          "internalType": "address",
          "name": "to",
          "type": "address"
        },
        {
          "indexed": false,
          "internalType": "uint48",
          "name": "_imei",
          "type": "uint48"
        }
      ],
      "name": "TRANSFERPHONE",
      "type": "event"
    },
    {
      "inputs": [
        {
          "internalType": "string",
          "name": "_model_Number",
          "type": "string"
        },
        {
          "internalType": "uint48",
          "name": "_imei1",
          "type": "uint48"
        },
        {
          "internalType": "uint48",
          "name": "_imei2",
          "type": "uint48"
        }
      ],
      "name": "addPhone",
      "outputs": [
        {
          "internalType": "bool",
          "name": "",
          "type": "bool"
        }
      ],
      "stateMutability": "nonpayable",
      "type": "function"
    },
    {
      "inputs": [
        {
          "internalType": "uint48",
          "name": "_imei",
          "type": "uint48"
        }
      ],
      "name": "getPhoneDetails",
      "outputs": [
        {
          "internalType": "string",
          "name": "",
          "type": "string"
        },
        {
          "internalType": "uint48",
          "name": "",
          "type": "uint48"
        },
        {
          "internalType": "uint48",
          "name": "",
          "type": "uint48"
        },
        {
          "internalType": "address",
          "name": "",
          "type": "address"
        },
        {
          "internalType": "enum MobilePhones.Status",
          "name": "",
          "type": "uint8"
        }
      ],
      "stateMutability": "view",
      "type": "function"
    },
    {
      "inputs": [
        {
          "internalType": "uint48",
          "name": "_imei",
          "type": "uint48"
        },
        {
          "internalType": "address",
          "name": "to",
          "type": "address"
        }
      ],
      "name": "transfer",
      "outputs": [
        {
          "internalType": "bool",
          "name": "",
          "type": "bool"
        }
      ],
      "stateMutability": "nonpayable",
      "type": "function"
    }
  ],
  "bytecode": "0x608060405234801561001057600080fd5b5033600160006101000a81548173ffffffffffffffffffffffffffffffffffffffff021916908373ffffffffffffffffffffffffffffffffffffffff160217905550611184806100616000396000f3fe608060405234801561001057600080fd5b50600436106100415760003560e01c80633cf9037014610046578063565582ae146100765780635f14602f146100a6575b600080fd5b610060600480360381019061005b9190610975565b6100da565b60405161006d91906109ff565b60405180910390f35b610090600480360381019061008b9190610a78565b610324565b60405161009d91906109ff565b60405180910390f35b6100c060048036038101906100bb9190610ab8565b610628565b6040516100d1959493929190610bf9565b60405180910390f35b60008060028111156100ef576100ee610b82565b5b6000808565ffffffffffff1665ffffffffffff16815260200190815260200160002060020160009054906101000a900460ff16600281111561013457610133610b82565b5b14610174576040517f08c379a000000000000000000000000000000000000000000000000000000000815260040161016b90610cc5565b60405180910390fd5b6040518060a001604052808581526020018465ffffffffffff1681526020018365ffffffffffff1681526020013373ffffffffffffffffffffffffffffffffffffffff168152602001600160028111156101d1576101d0610b82565b5b8152506000808565ffffffffffff1665ffffffffffff168152602001908152602001600020600082015181600001908161020b9190610efb565b5060208201518160010160006101000a81548165ffffffffffff021916908365ffffffffffff16021790555060408201518160010160066101000a81548165ffffffffffff021916908365ffffffffffff160217905550606082015181600101600c6101000a81548173ffffffffffffffffffffffffffffffffffffffff021916908373ffffffffffffffffffffffffffffffffffffffff16021790555060808201518160020160006101000a81548160ff021916908360028111156102d4576102d3610b82565b5b02179055509050507fa40b7e0eadd6bd6c69043dc6bcdb7242666df7225efa7a434ddcc9635e6b51c7848484336040516103119493929190610fcd565b60405180910390a1600190509392505050565b6000826000600281111561033b5761033a610b82565b5b6000808365ffffffffffff1665ffffffffffff16815260200190815260200160002060020160009054906101000a900460ff1660028111156103805761037f610b82565b5b1415801561045657503373ffffffffffffffffffffffffffffffffffffffff166000808365ffffffffffff1665ffffffffffff168152602001908152602001600020600101600c9054906101000a900473ffffffffffffffffffffffffffffffffffffffff1673ffffffffffffffffffffffffffffffffffffffff16148061045557503373ffffffffffffffffffffffffffffffffffffffff16600160009054906101000a900473ffffffffffffffffffffffffffffffffffffffff1673ffffffffffffffffffffffffffffffffffffffff16145b5b610495576040517f08c379a000000000000000000000000000000000000000000000000000000000815260040161048c90611065565b60405180910390fd5b83600060028111156104aa576104a9610b82565b5b6000808365ffffffffffff1665ffffffffffff16815260200190815260200160002060020160009054906101000a900460ff1660028111156104ef576104ee610b82565b5b0361052f576040517f08c379a0000000000000000000000000000000000000000000000000000000008152600401610526906110f7565b60405180910390fd5b836000808765ffffffffffff1665ffffffffffff168152602001908152602001600020600101600c6101000a81548173ffffffffffffffffffffffffffffffffffffffff021916908373ffffffffffffffffffffffffffffffffffffffff16021790555060026000808765ffffffffffff1665ffffffffffff16815260200190815260200160002060020160006101000a81548160ff021916908360028111156105dc576105db610b82565b5b02179055507f08b86c8a434f8abaec4ccb4ae81ec3d3da5744f1390fc517761d9a7e3071587233858760405161061493929190611117565b60405180910390a160019250505092915050565b60606000806000806000808765ffffffffffff1665ffffffffffff1681526020019081526020016000206000016000808865ffffffffffff1665ffffffffffff16815260200190815260200160002060010160069054906101000a900465ffffffffffff166000808965ffffffffffff1665ffffffffffff16815260200190815260200160002060010160069054906101000a900465ffffffffffff166000808a65ffffffffffff1665ffffffffffff168152602001908152602001600020600101600c9054906101000a900473ffffffffffffffffffffffffffffffffffffffff166000808b65ffffffffffff1665ffffffffffff16815260200190815260200160002060020160009054906101000a900460ff1684805461074a90610d14565b80601f016020809104026020016040519081016040528092919081815260200182805461077690610d14565b80156107c35780601f10610798576101008083540402835291602001916107c3565b820191906000526020600020905b8154815290600101906020018083116107a657829003601f168201915b505050505094509450945094509450945091939590929450565b6000604051905090565b600080fd5b600080fd5b600080fd5b600080fd5b6000601f19601f8301169050919050565b7f4e487b7100000000000000000000000000000000000000000000000000000000600052604160045260246000fd5b610844826107fb565b810181811067ffffffffffffffff821117156108635761086261080c565b5b80604052505050565b60006108766107dd565b9050610882828261083b565b919050565b600067ffffffffffffffff8211156108a2576108a161080c565b5b6108ab826107fb565b9050602081019050919050565b82818337600083830152505050565b60006108da6108d584610887565b61086c565b9050828152602081018484840111156108f6576108f56107f6565b5b6109018482856108b8565b509392505050565b600082601f83011261091e5761091d6107f1565b5b813561092e8482602086016108c7565b91505092915050565b600065ffffffffffff82169050919050565b61095281610937565b811461095d57600080fd5b50565b60008135905061096f81610949565b92915050565b60008060006060848603121561098e5761098d6107e7565b5b600084013567ffffffffffffffff8111156109ac576109ab6107ec565b5b6109b886828701610909565b93505060206109c986828701610960565b92505060406109da86828701610960565b9150509250925092565b60008115159050919050565b6109f9816109e4565b82525050565b6000602082019050610a1460008301846109f0565b92915050565b600073ffffffffffffffffffffffffffffffffffffffff82169050919050565b6000610a4582610a1a565b9050919050565b610a5581610a3a565b8114610a6057600080fd5b50565b600081359050610a7281610a4c565b92915050565b60008060408385031215610a8f57610a8e6107e7565b5b6000610a9d85828601610960565b9250506020610aae85828601610a63565b9150509250929050565b600060208284031215610ace57610acd6107e7565b5b6000610adc84828501610960565b91505092915050565b600081519050919050565b600082825260208201905092915050565b60005b83811015610b1f578082015181840152602081019050610b04565b60008484015250505050565b6000610b3682610ae5565b610b408185610af0565b9350610b50818560208601610b01565b610b59816107fb565b840191505092915050565b610b6d81610937565b82525050565b610b7c81610a3a565b82525050565b7f4e487b7100000000000000000000000000000000000000000000000000000000600052602160045260246000fd5b60038110610bc257610bc1610b82565b5b50565b6000819050610bd382610bb1565b919050565b6000610be382610bc5565b9050919050565b610bf381610bd8565b82525050565b600060a0820190508181036000830152610c138188610b2b565b9050610c226020830187610b64565b610c2f6040830186610b64565b610c3c6060830185610b73565b610c496080830184610bea565b9695505050505050565b7f4d6f62696c652050686f6e65206174207468697320696d656920616c7265616460008201527f7920657869737473000000000000000000000000000000000000000000000000602082015250565b6000610caf602883610af0565b9150610cba82610c53565b604082019050919050565b60006020820190508181036000830152610cde81610ca2565b9050919050565b7f4e487b7100000000000000000000000000000000000000000000000000000000600052602260045260246000fd5b60006002820490506001821680610d2c57607f821691505b602082108103610d3f57610d3e610ce5565b5b50919050565b60008190508160005260206000209050919050565b60006020601f8301049050919050565b600082821b905092915050565b600060088302610da77fffffffffffffffffffffffffffffffffffffffffffffffffffffffffffffffff82610d6a565b610db18683610d6a565b95508019841693508086168417925050509392505050565b6000819050919050565b6000819050919050565b6000610df8610df3610dee84610dc9565b610dd3565b610dc9565b9050919050565b6000819050919050565b610e1283610ddd565b610e26610e1e82610dff565b848454610d77565b825550505050565b600090565b610e3b610e2e565b610e46818484610e09565b505050565b5b81811015610e6a57610e5f600082610e33565b600181019050610e4c565b5050565b601f821115610eaf57610e8081610d45565b610e8984610d5a565b81016020851015610e98578190505b610eac610ea485610d5a565b830182610e4b565b50505b505050565b600082821c905092915050565b6000610ed260001984600802610eb4565b1980831691505092915050565b6000610eeb8383610ec1565b9150826002028217905092915050565b610f0482610ae5565b67ffffffffffffffff811115610f1d57610f1c61080c565b5b610f278254610d14565b610f32828285610e6e565b600060209050601f831160018114610f655760008415610f53578287015190505b610f5d8582610edf565b865550610fc5565b601f198416610f7386610d45565b60005b82811015610f9b57848901518255600182019150602085019450602081019050610f76565b86831015610fb85784890151610fb4601f891682610ec1565b8355505b6001600288020188555050505b505050505050565b60006080820190508181036000830152610fe78187610b2b565b9050610ff66020830186610b64565b6110036040830185610b64565b6110106060830184610b73565b95945050505050565b7f4f6e6c79207468652070686f6e65206f776e65722063616e20646f2074686973600082015250565b600061104f602083610af0565b915061105a82611019565b602082019050919050565b6000602082019050818103600083015261107e81611042565b9050919050565b7f4e6f2070686f6e6520657869737473206174207468697320494d4549204e756d60008201527f6265720000000000000000000000000000000000000000000000000000000000602082015250565b60006110e1602383610af0565b91506110ec82611085565b604082019050919050565b60006020820190508181036000830152611110816110d4565b9050919050565b600060608201905061112c6000830186610b73565b6111396020830185610b73565b6111466040830184610b64565b94935050505056fea264697066735822122053beb5f68fde2124db02ecde7bece4fc2273e179c91a38c80339551f36bfd20364736f6c63430008130033",
  "linkReferences": {},
  "deployedLinkReferences": {}
}